:020000040000FA
:04000000C4EF12F047
:100800000048554D45444954593A200054494D45F6
:100810003A2000444154453A200054454D503A2076
:10082000002E256420002E2564000D0A002C0000F7
:100830002B50800B346E2B502B24366E2AAE23EFB8
:1008400004F025EF04F026EF04F036803650D8B4DB
:100850002CEF04F02EEF04F043EF04F03628D8A478
:1008600034EF04F036EF04F03EEF04F0000E286E93
:10087000000E296E000E2A6E000E2B6E2A8E000EC0
:100880002B6E4BEF04F0000E286E000E296E000E4A
:100890002A6E000E2B6E2F50800B356E345035189B
:1008A000D8B455EF04F057EF04F058EF04F0348C4F
:1008B0002F502F24356E2EAE60EF04F062EF04F05F
:1008C00063EF04F035803550D8B469EF04F06BEF76
:1008D00004F080EF04F03528D8A471EF04F073EF32
:1008E00004F07BEF04F0000E2C6E000E2D6E000E57
:1008F0002E6E000E2F6E2E8E000E2F6E88EF04F0DF
:10090000000E2C6E000E2D6E000E2E6E000E2F6E41
:100910003650355CD8B08FEF04F091EF04F0B8EFAB
:1009200004F034AC96EF04F098EF04F09AEF04F082
:10093000800E341A36C037F035C036F037C035F087
:1009400028C037F02CC028F037C02CF029C037F071
:100950002DC029F037C02DF02AC037F02EC02AF064
:1009600037C02EF02BC037F02FC02BF037C02FF040
:10097000000E376E365035C030F0316A305E000EF2
:10098000315A31BECDEF04F0315009E11A0E305C1E
:10099000D8A0CDEF04F0CFEF04F006EF05F028501B
:1009A00029102A102B10D8A4D8EF04F0DBEF04F0A4
:1009B000010EDCEF04F0000E376E000E286E000E04
:1009C000296E000E2A6E000E2B6E35C036F00FEF2A
:1009D00005F037A0EEEF04F0F0EF04F0F6EF04F0CE
:1009E000D89037300109376EF8EF04F0D8903732DD
:1009F00028A0FDEF04F0FFEF04F000EF05F0378EC4
:100A00002B342B322A3229322832362A3550365CA2
:100A1000D8A00DEF05F00FEF05F0E9EF04F034BCBE
:100A200014EF05F016EF05F056EF05F03650D8A498
:100A30001CEF05F01EEF05F028EF05F0000E286E04
:100A4000000E296E000E2A6E000E2B6E77EF06F058
:100A50002C5028262D5029222E502A222F502B226E
:100A60002BA035EF05F037EF05F0E3EF05F037A0E9
:100A70003CEF05F03EEF05F044EF05F0D89037303D
:100A80000109376E46EF05F0D890373228A04BEFBA
:100A900005F04DEF05F04EEF05F0378E2B342B327D
:100AA0002A3229322832362AE3EF05F02C50285C0E
:100AB0002D5029582E502A582B50800A306E2F5016
:100AC000800A3058D8B067EF05F069EF05F094EF71
:100AD00005F028502C5C306E29502D58316E2A506C
:100AE0002E58326E2B502F58336EFF0E3024286E46
:100AF000FF0E3120296EFF0E32202A6EFF0E3320AA
:100B00002B6E800E341A376C3750D8A48AEF05F05C
:100B10008CEF05F09CEF05F0010E2826000E29222F
:100B20002A222B229CEF05F02C50285E2D50295AAA
:100B30002E502A5A2F502B5A285029102A102B1089
:100B4000D8A4A5EF05F0A7EF05F0DCEF05F03750CE
:100B5000D8A4ADEF05F0AFEF05F0DCEF05F0000E27
:100B6000286E000E296E000E2A6E000E2B6E77EF97
:100B700006F0D890283629362A362B3637AEC3EF02
:100B800005F0C5EF05F0C6EF05F0288037A0CBEFE4
:100B900005F0CDEF05F0D1EF05F0D8803736D3EF73
:100BA00005F0D89037363650D8B4D9EF05F0DBEFE2
:100BB00005F0DCEF05F036062AAEE1EF05F0E3EFD5
:100BC00005F0B9EF05F0000E356E37AEEAEF05F02F
:100BD000ECEF05F004EF06F037C030F07F0E301672
:100BE000D8B4F5EF05F0F7EF05F0FBEF05F0010ED7
:100BF000356E04EF06F028A000EF06F002EF06F0D5
:100C000004EF06F0F7EF05F03550D8B40AEF06F020
:100C10000CEF06F037EF06F0010E2826000E292211
:100C20002A222B222BA017EF06F019EF06F037EF40
:100C300006F028C030F029C031F02AC032F02BC0B5
:100C400033F03334333232323132303230C028F084
:100C500031C029F032C02AF033C02BF03628D8B486
:100C600034EF06F036EF06F037EF06F0362A362876
:100C7000D8B43DEF06F03FEF06F047EF06F03650F0
:100C8000D8A445EF06F047EF06F059EF06F0000E46
:100C9000286E000E296E000E2A6E000E2B6E365046
:100CA000D8A455EF06F057EF06F059EF06F0000E06
:100CB000346E36A05EEF06F060EF06F063EF06F0EC
:100CC0002A8E64EF06F02A9ED89036302B6E34AE12
:100CD0006CEF06F06EEF06F06FEF06F02B8E28C07B
:100CE00028F029C029F02AC02AF02BC02BF01200CE
:100CF0001250800B1F6E12501224266E11AE83EF1D
:100D000006F085EF06F086EF06F026802650D8B470
:100D10008CEF06F08EEF06F0A3EF06F02628D8A49D
:100D200094EF06F096EF06F09EEF06F0000E0F6EC1
:100D3000000E106E000E116E000E126E118E000E5F
:100D4000126EABEF06F0000E0F6E000E106E000E6E
:100D5000116E000E126E1650800B1F1A16501624BC
:100D6000276E15AEB6EF06F0B8EF06F0B9EF06F055
:100D700027802750D8B4BFEF06F0C1EF06F0D6EFBA
:100D800006F02728D8A4C7EF06F0C9EF06F0D1EF88
:100D900006F0000E136E000E146E000E156E000E9F
:100DA000166E158E000E166EDEEF06F0000E136E38
:100DB000000E146E000E156E000E166E13501410F9
:100DC00015101610D8A4E7EF06F0E9EF06F001EFD2
:100DD00007F0000E0F6E000E106E000E116E000E6A
:100DE000126E800E11127F0E12121F5012120FC0BF
:100DF0000FF010C010F011C011F012C012F044EF4B
:100E000008F02650D8A407EF07F009EF07F013EF1A
:100E100007F0000E0F6E000E106E000E116E000E29
:100E2000126E44EF08F0275026C017F0186A175EBC
:100E3000000E185A7F0E1724206E000E1820216E07
:100E40000FC01BF010C01CF011C01DF012C01EF02E
:100E5000000E0F6E000E106E000E116E000E126E60
:100E6000000E226E000E236E000E246E000E256E04
:100E7000000E276E74EF07F02750D8B442EF07F04A
:100E800044EF07F05BEF07F0D8901B361C361D3699
:100E90001E36D8900F3610361136123625AE53EF67
:100EA00007F055EF07F056EF07F00F80D890223685
:100EB00023362436253613501B5C14501C5815500D
:100EC0001D5816501E58D8A068EF07F06AEF07F0BB
:100ED00073EF07F0258C13501B5E14501C5A1550ED
:100EE0001D5A16501E5A272A190E27647AEF07F04A
:100EF0007CEF07F03CEF07F01B501C101D101E107C
:100F0000D8B485EF07F087EF07F09FEF07F0228056
:100F10009FEF07F0D8900F3610361136123625AEF7
:100F200094EF07F096EF07F097EF07F00F80D89057
:100F300022362336243625362006D8A0210611AEC7
:100F4000A4EF07F0A6EF07F08AEF07F0000E276E78
:100F500025AEADEF07F0AFEF07F0D3EF07F0FF0ED0
:100F60002214176EFF0E2314186EFF0E2414196E30
:100F70007F0E25141A6E1750181019101A10D8B4B5
:100F8000C4EF07F0C6EF07F0CAEF07F0010E276EB7
:100F9000D3EF07F00FA0CFEF07F0D1EF07F0D3EFBB
:100FA00007F0C6EF07F02750D8B4D9EF07F0DBEF12
:100FB00007F0FFEF07F0010E0F26000E102211229E
:100FC000122212A0E6EF07F0E8EF07F0FFEF07F0BC
:100FD0000FC017F010C018F011C019F012C01AF0AD
:100FE0001A341A3219321832173217C00FF018C0DB
:100FF00010F019C011F01AC012F0204A212A21BEA7
:101000000AEF08F0215008E12028D8A00AEF08F0E4
:101010000CEF08F017EF08F0000E216E2068000EAC
:101020000F6E000E106E000E116E000E126E21BEBD
:1010300024EF08F0215006E12004D8B022EF08F098
:1010400024EF08F032EF08F0000E216E000E206E43
:10105000000E0F6E000E106E000E116E000E126E5E
:10106000000E1F6E20C026F026A039EF08F03BEFDF
:1010700008F03EEF08F0118E3FEF08F0119ED89077
:101080002630126EF5EF06F012001EC036F01FC0BB
:1010900037F020C038F021C039F022C03AF023C028
:1010A0003BF024C03CF025C03DF03DBE5AEF08F0B7
:1010B0005DEF08F0010E5EEF08F0000E346E356A49
:1010C00034503510D8B467EF08F069EF08F079EFC5
:1010D00008F03D1E3C1E3B1E3A1E391E381E371EB0
:1010E000366C000E3722382239223A223B223C222B
:1010F0003D22000165BF7FEF08F081EF08F082EF2D
:1011000008F0669365BF8FEF08F0655106E164054E
:10111000D8B08DEF08F08FEF08F095EF08F0000ED3
:10112000316E010E306E99EF08F064C030F065C08A
:1011300031F062C032F063C033F034503510D8A4BF
:10114000A4EF08F0A6EF08F0ADEF08F066A5ABEF4E
:1011500008F0ADEF08F0B0EF08F03206D8A0330683
:10116000000E3F6E1F0E3E6E000EB96F34EF09F099
:101170003E06D8A03F069A0E3E24D96E000E3F20B0
:10118000DA6E36C001F037C002F038C003F039C063
:1011900004F03AC005F03BC006F03CC007F03DC08B
:1011A00008F00A0E096E000E0A6E000E0B6E000E9D
:1011B0000C6E000E0D6E000E0E6E000E0F6E000E09
:1011C000106E47EC0EF001C026F002C027F003C0FD
:1011D00028F004C029F005C02AF006C02BF007C093
:1011E0002CF008C02DF026C013F028C014F028EC15
:1011F00012F01350300FDF6E3006D8A031063206E1
:10120000D8A0330636C001F037C002F038C003F072
:1012100039C004F03AC005F03BC006F03CC007F00E
:101220003DC008F00A0E096E000E0A6E000E0B6E2D
:10123000000E0C6E000E0D6E000E0E6E000E0F6E88
:10124000000E106EC8EC0CF001C036F002C037F092
:1012500003C038F004C039F005C03AF006C03BF0D6
:1012600007C03CF008C03DF03FBE3FEF09F03F50E3
:1012700008E13E04D8A03FEF09F041EF09F072EF1A
:1012800009F036503710381039103A103B103C1026
:101290003D10D8A44EEF09F050EF09F0B8EF08F078
:1012A00031BE5DEF09F0315006E13004D8B05BEF9C
:1012B00009F05DEF09F0B8EF08F033BE68EF09F010
:1012C000335008E13204D8A068EF09F06AEF09F062
:1012D00072EF09F0000166B370EF09F072EF09F0E8
:1012E000B8EF08F034503510D8A479EF09F07BEF4F
:1012F00009F083EF09F0000166A581EF09F083EFA3
:1013000009F0A1EF09F03E06D8A03F063450351091
:10131000D8A48DEF09F08FEF09F095EF09F0000EDA
:101320002F6E2B0E2E6E99EF09F0000E2F6E2D0EE4
:101330002E6E9A0E3E24D96E000E3F20DA6E2EC01D
:10134000DFFF1CC011F01DC012F09A0E3E24136E78
:10135000000E3F20146E32C015F033C016F0E1ECE1
:101360000FF011C01CF012C01DF01200D20ED36E8F
:101370009394939648EC12F0F28EF28C9D8A800E34
:10138000386E250E396E000E3A6E000E3B6E44EC40
:1013900010F00EEC13F01A0E5E6EF80EE82EFED76B
:1013A0005E2EFCD700D0D5EC12F09BEC12F063EC73
:1013B00011F00001D16F63EC11F00001CF6F63EC0D
:1013C00011F00001D26F63EC11F00001D06F63ECFB
:1013D00011F0000E0A6E130E0B6E080E0C6E010E4D
:1013E0008EEC10F0000E0A6E0C0E0B6E080E0C6EDA
:1013F000020E8EEC10F0C50E016E000E026E000E95
:10140000046E000E036E000E066E0A0E056E8CEC66
:101410000DF0C50E586E000E596E270E5A6E080E4E
:101420005B6ED2C05CF05D6A91EC11F0000E0A6E4A
:101430001A0E0B6E080E0C6E030E8EEC10F0C50E1D
:10144000086E000E096E06EC11F0C50E586E000E07
:10145000596E260E5A6E080E5B6ED0C05CF05D6A47
:1014600091EC11F0C50E086E000E096E06EC11F03D
:10147000DF0EE5EC12F0430EE5EC12F0C50E016E46
:10148000000E026E000E046E000E036E000E066E5D
:101490000A0E056E8CEC0DF0C50E586E000E596EDE
:1014A000270E5A6E080E5B6ED1C05CF05D6A91EC3F
:1014B00011F0000E0A6E010E0B6E080E0C6E040E7B
:1014C0008EEC10F0C50E086E000E096E06EC11F0E1
:1014D000C50E586E000E596E210E5A6E080E5B6EC8
:1014E000CFC05CF05D6A91EC11F0C50E086E000E85
:1014F000096E06EC11F0250EE5EC12F0D2C001F0F9
:101500000001D151BAEC11F0C50E586E000E596EA3
:10151000270E5A6E080E5B6ED1C05CF05D6A91ECCE
:1015200011F0680E056E000E066EC50E076E000EF9
:10153000086E35EC11F0C50E586E000E596E260E71
:101540005A6E080E5B6ECFC05CF05D6A91EC11F0D4
:10155000680E0F6E000E106EC50E116E000E126E2C
:10156000B1EC12F0060E5F6E130E5E6EAE0EE82E3C
:10157000FED75E2EFCD75F2EFAD7680E0F6E000ED8
:10158000106E2D0E116E080E126EB1EC12F0C50E1B
:10159000586E000E596E270E5A6E080E5B6ED2C042
:1015A0005CF05D6A91EC11F0680E0F6E000E106E2B
:1015B000C50E116E000E126EB1EC12F0C50E586E13
:1015C000000E596E260E5A6E080E5B6ED0C05CF08F
:1015D0005D6A91EC11F0680E0F6E000E106EC50E74
:1015E000116E000E126EB1EC12F0680E0F6E000E4E
:1015F000106E2A0E116E080E126EB1EC12F0680E0B
:10160000026E000E036E83EC12F0060E5F6E130E78
:101610005E6EAE0EE82EFED75E2EFCD75F2EFAD79A
:10162000D3EF09F000EF00F042C0D9FF43C0DAFF6A
:10163000DECFF6FFDDCFF7FF0800F550250AD8A46E
:1016400024EF0BF026EF0BF0D2EF0BF042C0D9FFE6
:1016500043C0DAFFDE2A000EDD22000E0001636FB8
:10166000000E626F62C066F063C067F0646965690E
:1016700042C0D9FF43C0DAFFDECFF6FFDDCFF7FF70
:101680000800F550640AD8B448EF0BF04AEF0BF0AD
:101690005CEF0BF042C0D9FF43C0DAFFDECFF6FFAC
:1016A000DDCFF7FF0800F550690AD8A45AEF0BF018
:1016B0005CEF0BF09CEF0BF042C0D9FF43C0DAFFA8
:1016C000DE2A000EDD2244C0D9FF45C0DAFFDFCF9D
:1016D00046F0020EDE26DFCF47F0000EDD2246C0C8
:1016E000D9FF47C0DAFFDECF48F0DDCF49F0000E6A
:1016F00049BEFF0E4A6E4B6E4C6E4D6E4E6E4F6E77
:1017000040C01CF041C01DF048C01EF049C01FF091
:101710004AC020F04BC021F04CC022F04DC023F055
:101720004EC024F04FC025F045EC08F01CC040F03E
:101730001DC041F0EDEF0BF042C0D9FF43C0DAFF0E
:10174000DECFF6FFDDCFF7FF0800F550250AD8A45D
:10175000ACEF0BF0AEEF0BF0C5EF0BF042C0D9FFD2
:1017600043C0DAFFDE2A000EDD22000E026E250ED7
:10177000016E40C003F041C004F07CEC0FF0000E9D
:10178000416E010E406EEDEF0BF042C0D9FF43C039
:10179000DAFFDE2A000EDD22000E416E000E406EE2
:1017A000EDEF0BF042C0D9FF43C0DAFFDECFF6FF0A
:1017B000DDCFF7FF0800F550016E026A40C003F06C
:1017C00041C004F07CEC0FF042C0D9FF43C0DAFF07
:1017D000DE2A000EDD22BFEF0BF01200096E095069
:1017E000D8B4F5EF0BF0F7EF0BF019EF0CF004BEE7
:1017F000FEEF0BF0FCEF0BF019EF0CF001C005F061
:1018000002C006F003C007F004C008F0051E061E63
:10181000071E081E052A000E06220722082205C000
:101820000BF006C00CF007C00DF008C00EF021EF61
:101830000CF001C00BF002C00CF003C00DF004C0AE
:101840000EF00150021003100410D8A42AEF0CF07F
:101850002CEF0CF036EF0CF0000E016E000E026E55
:10186000000E036E000E046EC7EF0CF0960E0A6EAB
:1018700040EF0CF00A2AD8900E320D320C320B32A7
:10188000000E0B14056E000E0C14066E000E0D14E7
:10189000076EFE0E0E14086E055006100710081095
:1018A000D8A455EF0CF057EF0CF03AEF0CF065EFC1
:1018B0000CF00A2A010E0B26000E0C220D220E221D
:1018C000D8900E320D320C320B32000E0B14056E16
:1018D000000E0C14066E000E0D14076EFF0E0E1493
:1018E000086E0550061007100810D8A47AEF0CF007
:1018F0007CEF0CF059EF0CF084EF0CF00A06D89056
:101900000B360C360D360E360DBE89EF0CF08BEF14
:101910000CF093EF0CF0020E0A6091EF0CF093EFD5
:101920000CF07EEF0CF00AB098EF0CF09AEF0CF090
:101930009BEF0CF00D9ED8900A320AC005F0066AA3
:10194000076A086A05C008F0076A066A056A055052
:101950000B1206500C1207500D1208500E120950AF
:10196000D8B4B5EF0CF0B7EF0CF0BFEF0CF004BE3D
:10197000BEEF0CF0BCEF0CF0BFEF0CF00E8E0BC006
:1019800001F00CC002F00DC003F00EC004F0120014
:10199000000E126E10BED1EF0CF0CFEF0CF0E3EFA3
:1019A0000CF0101E0F1E0E1E0D1E0C1E0B1E0A1E0E
:1019B000096C000E0A220B220C220D220E220F228D
:1019C0001022010E126E08BEEAEF0CF0E8EF0CF0E8
:1019D000FCEF0CF0081E071E061E051E041E031E4B
:1019E000021E016C000E022203220422052206229E
:1019F00007220822010E121A20EE13F0070EDE6AEB
:101A0000E806FDE209500A100B100C100D100E1024
:101A10000F101010D8B40FEF0DF011EF0DF063EFB1
:101A20000DF0010E116E1FEF0DF0D89009360A3639
:101A30000B360C360D360E360F361036112A10AE18
:101A400024EF0DF026EF0DF015EF0DF0D8901336C2
:101A50001436153616361736183619361A36095012
:101A6000015C0A5002580B5003580C5004580D509A
:101A700005580E5006580F50075810500858D8A057
:101A800044EF0DF046EF0DF057EF0DF00950015EF9
:101A90000A50025A0B50035A0C50045A0D50055A62
:101AA0000E50065A0F50075A1050085A1380D890FB
:101AB00010320F320E320D320C320B320A32093232
:101AC000112E26EF0DF01250D8B469EF0DF06BEF28
:101AD0000DF07BEF0DF01A1E191E181E171E161E94
:101AE000151E141E136C000E142215221622172226
:101AF000182219221A2213C001F014C002F015C0D6
:101B000003F016C004F017C005F018C006F019C0A5
:101B100007F01AC008F0120001C00BF002C00CF070
:101B200005500610D8A497EF0DF099EF0DF09BEF3C
:101B30000DF046EF0EF00BC0D9FF0CC0DAFF03C06A
:101B4000DFFF05500B24076E06500C20086EFF0EB9
:101B50000724D96EFF0E0820DA6E03C0DFFF06509F
:101B600007E1030E055CD8B0B8EF0DF0BAEF0DF049
:101B7000BCEF0DF046EF0EF020EE01F00B50D92631
:101B80000C50DA2203C0DFFF20EE02F00B50D92602
:101B90000C50DA2203C0DFFF05500B24076E0650FD
:101BA0000C20086EFE0E0724D96EFF0E0820DA6E98
:101BB00003C0DFFF05500B24076E06500C20086E93
:101BC000FD0E0724D96EFF0E0820DA6E03C0DFFF7A
:101BD000065007E1070E055CD8B0F1EF0DF0F3EF0A
:101BE0000DF0F5EF0DF046EF0EF020EE03F00B5088
:101BF000D9260C50DA2203C0DFFF05500B24076EF4
:101C000006500C20086EFC0E0724D96EFF0E08202B
:101C1000DA6E03C0DFFF065007E1090E055CD8B09D
:101C200014EF0EF016EF0EF018EF0EF046EF0EF078
:101C30000BC007F00CC008F0071E081E074A082A50
:101C4000030E0714096E0A6A09500B260A500C226B
:101C50000950055E0A50065AFC0E0516FF0E0616C0
:101C60003DEF0EF00BC0D9FF0CC0DAFF03C0DFFF61
:101C70000506D8A006060B4A0C2A05500610D8A463
:101C800044EF0EF046EF0EF032EF0EF01200000EB1
:101C9000126E08BE50EF0EF04EEF0EF062EF0EF037
:101CA000081E071E061E051E041E031E021E016CD2
:101CB000000E022203220422052206220722082205
:101CC000010E126E10BE69EF0EF067EF0EF079EFA5
:101CD0000EF0101E0F1E0E1E0D1E0C1E0B1E0A1ED9
:101CE000096C000E0A220B220C220D220E220F225A
:101CF000102209500A100B100C100D100E100F10AE
:101D00001010D8B486EF0EF088EF0EF0D0EF0EF082
:101D1000010E116E96EF0EF0D89009360A360B368A
:101D20000C360D360E360F361036112A10AE9BEFDC
:101D30000EF09DEF0EF08CEF0EF00950015C0A5092
:101D400002580B5003580C5004580D5005580E50B3
:101D500006580F50075810500858D8A0B2EF0EF090
:101D6000B4EF0EF0C4EF0EF00950015E0A50025AB3
:101D70000B50035A0C50045A0D50055A0E50065A77
:101D80000F50075A1050085AD89010320F320E32A6
:101D90000D320C320B320A320932112E9DEF0EF049
:101DA0001250D8B4D6EF0EF0D8EF0EF0E8EF0EF0E8
:101DB000081E071E061E051E041E031E021E016CC1
:101DC000000E0222032204220522062207220822F4
:101DD00001C001F002C002F003C003F004C004F02F
:101DE00005C005F006C006F007C007F008C008F0FF
:101DF0001200033404340A6E0A50D8A402EF0FF024
:101E000004EF0FF00EEF0FF0000E016E000E026EE9
:101E1000000E036E000E046E7BEF0FF001C005F0A4
:101E200002C006F003C007F004C008F0200E1EEF49
:101E30000FF0D8900832073206320532E82E19EF3B
:101E40000FF00550096E038EFF0E0116FF0E0216ED
:101E5000FF0E0316000E0416960E0A5E0ABE35EF3C
:101E60000FF033EF0FF04BEF0FF00A50800A970F8F
:101E7000D8B03DEF0FF03FEF0FF041EF0FF004EF60
:101E80000FF0D89004320332023201320A3E41EFA1
:101E90000FF063EF0FF01F0E0A6451EF0FF053EFD6
:101EA0000FF05BEF0FF004EF0FF0D8900136023621
:101EB000033604360A060A50D8A461EF0FF063EF28
:101EC0000FF055EF0FF00950D8B469EF0FF06BEF3A
:101ED0000FF073EF0FF0041E031E021E016C000EC4
:101EE00002220322042201C001F002C002F003C05A
:101EF00003F004C004F0120003500410D8B483EFC0
:101F00000FF085EF0FF08EEF0FF003500410D8A400
:101F10008CEF0FF08EEF0FF093EF0FF0015017ECF6
:101F200013F0E0EF0FF020EE04F00350D926045038
:101F3000DA22DE50DE10D8B4A0EF0FF0A2EF0FF0DF
:101F4000BDEF0FF020EE04F00350D9260450DA2242
:101F500010EE02F00350E1260450E222DE50E65C6F
:101F6000E650800A096EDE50800A0958D8B0BBEFEF
:101F70000FF0BDEF0FF0E0EF0FF020EE02F0035096
:101F8000D9260450DA22DECF05F0DDCF06F003C0FB
:101F9000D9FF04C0DAFFDECF07F0DDCF08F005502F
:101FA0000724D96E06500820DA6E01C0DFFF20EE4C
:101FB00002F00350D9260450DA22DE2A000EDD2278
:101FC0001200000166A1E7EF0FF0E9EF0FF0F3EF69
:101FD0000FF013C00AF014C00BF011C00CF012C0C7
:101FE0000DF006EC12F016BEF8EF0FF0FAEF0FF05E
:101FF00000EF10F015C01AF016C01BF004EF10F03F
:10200000000E1B6E000E1A6E000E196E000E186E7A
:1020100016EF10F0000E026E200E016E11C003F0DC
:1020200012C004F07CEC0FF0184A192A1A50185C00
:102030001950800A176E1B50800A1758D8A023EF3A
:1020400010F025EF10F00AEF10F0000166B12BEF51
:1020500010F02DEF10F037EF10F013C00AF014C09D
:102060000BF011C00CF012C00DF006EC12F013C012
:1020700001F014C002F068EC12F01A500124116E45
:102080001B500220126E1200949C948E38C001F0F6
:1020900039C002F03AC003F03BC004F0010EEEEC90
:1020A0000BF001C013F002C014F003C015F004C01F
:1020B00016F0000E0F6E240E106EF40E116E470E09
:1020C000126E78EC06F00FC028F010C029F011C095
:1020D0002AF012C02BF0000E2C6E000E2D6E800E1A
:1020E0002E6EBF0E2F6E18EC04F028C03CF029C0F5
:1020F0003DF02AC03EF02BC03FF03CC001F03DC097
:1021000002F03EC003F03FC004F0F9EC0EF00150C5
:10211000AF6E200EAC6E900EAB6E12000D6E0D0405
:10212000D8A495EF10F097EF10F09EEF10F00A5042
:102130000F0B8009F4EC12F0CEEF10F0020E0D1828
:10214000D8A4A5EF10F0A7EF10F0AEEF10F00A50F2
:102150000F0BC009F4EC12F0CEEF10F0030E0D18C7
:10216000D8A4B5EF10F0B7EF10F0BEEF10F00A50A2
:102170000F0B9409F4EC12F0CEEF10F0040E0D18D2
:10218000D8A4C5EF10F0C7EF10F0CEEF10F00A5052
:102190000F0BD409F4EC12F0CEEF10F00BC008F0E6
:1021A0000CC009F006EC11F0120052C056F053C0FA
:1021B00057F0000E0001616F000E606FF3EF10F03A
:1021C00050C040F051C041F0560E426E000E436EBA
:1021D00054C044F055C045F014EC0BF040500001E1
:1021E00060274150612356C0F6FF57C0F7FF080033
:1021F000F5500009D8A4FFEF10F001EF11F0E0EF67
:1022000010F060C050F061C051F012001CEF11F0EE
:1022100008C0F6FF09C0F7FFF86A070EF76403D09D
:102220000800F55005D0F6CFE9FFF7CFEAFFEF50F1
:10223000E5EC12F0084A092A08C0F6FF09C0F7FFCA
:10224000F86A070EF76403D00800F55005D0F6CF02
:10225000E9FFF7CFEAFFEF500009D8A432EF11F001
:1022600034EF11F008EF11F0120007C00BF008C0B6
:102270000CF005C00DF006C00EF00B50096E0C50AE
:102280000A6E0B4A0C2A09C0F6FF0AC0F7FFF86A6B
:102290000DC0D9FF0EC0DAFF0D4A0E2A070EF764F3
:1022A00003D00800F55005D0F6CFE9FFF7CFEAFFDD
:1022B000EF50DF6EDF50D8A460EF11F062EF11F045
:1022C0003DEF11F01200000E026E000E016E80A0B4
:1022D0006CEF11F06EEF11F067EF11F0140EE82EB5
:1022E000FED780A076EF11F078EF11F07CEF11F0BF
:1022F000D88002367FEF11F002500224026E80B0C7
:1023000084EF11F086EF11F07FEF11F0012A070E34
:1023100001648DEF11F08FEF11F067EF11F00250B3
:1023200012005C0E0001BC6F000EBD6F58C0BEF005
:1023300059C0BFF0000EC16F000EC06F000EC36F1A
:10234000000EC26FBE0E506E000E516E5AC052F09B
:102350005BC053F0BC0E546E000E556ED5EC10F001
:102360000001C0515824D96EC1515920DA6E000EB7
:10237000DF6E1200046E180E0464C1EF11F0C3EF9B
:1023800011F0D3EF11F0150E0160C9EF11F0CBEF92
:1023900011F0E0EF11F00150D8B4D1EF11F0D3EF0C
:1023A00011F0E0EF11F08A86060E036E130E026E36
:1023B000AE0EE82EFED7022EFCD7032EFAD78A9651
:1023C0001200000E046E000E036EFAEF11F0000E04
:1023D000066E000E056E054A062A065009E1A50E96
:1023E000055CD8A0F6EF11F0F8EF11F0EBEF11F06B
:1023F000034A042A0150035C02500458D8A003EF9A
:1024000012F005EF12F0E7EF11F01200000E106E5F
:10241000000E0F6E17EF12F00EC001F0026A0CC032
:1024200003F00DC004F07CEC0FF00F4A102A0F509F
:102430000A24D96E10500B20DA6EDF500E6E0E504B
:10244000D8A425EF12F027EF12F00CEF12F01200D3
:1024500014BE35EF12F0145006E11304D8B033EF78
:1024600012F035EF12F043EF12F013C015F014C064
:1024700016F0151E161E154A162A15C013F016C0A2
:1024800014F047EF12F013C013F014C014F0120050
:10249000000E946E000E956E000E026E140E016E0C
:1024A000E1EC11F0380EF4EC12F00C0EF4EC12F03A
:1024B000060EF4EC12F0010EF4EC12F0000E026EB7
:1024C000030E016EE1EC11F0800EF4EC12F012003C
:1024D00001C003F002C004F070EF12F0014A022ABA
:1024E00001C0D9FF02C0DAFFDF50D8A47AEF12F0A2
:1024F0007CEF12F06EEF12F00350015C016E04509D
:102500000258026E12008EEF12F002C0D9FF03C013
:10251000DAFFDF5003EC13F0024A032A02C0D9FFAE
:1025200003C0DAFFDF50D8A498EF12F09AEF12F050
:1025300085EF12F0120080B0A0EF12F0A2EF12F0BF
:102540009BEF12F080A0A7EF12F0A9EF12F0A2EF1C
:1025500012F080B0AEEF12F0B0EF12F0A9EF12F06F
:1025600012000FC001F010C002F068EC12F0015030
:102570000F24056E02501020066E11C007F012C025
:1025800008F035EC11F0120001EE00F0320EEE6AA8
:10259000E806FDE100EE60F05A0EEE6AE806FDE1A5
:1025A000000EF86E0001B6EF09F0929089902F0EA0
:1025B000016EC00EE82EFED7012EFCD789800D0ECD
:1025C000E82EFED700F092801200076E07C08CFF45
:1025D0008B808B928B8400F08B94000E026E030E26
:1025E000016EE1EC11F01200076E07C08CFF8B90BA
:1025F0008B928B8400F08B94000E026E030E016EA2
:10260000E1EC11F01200016E9EA809EF13F00BEF40
:1026100013F004EF13F001C0ADFF12009268C1681F
:10262000920EC06E000EC46E000EC36E1200120039
:020000040020DA
:08000000FFFFFFFFFFFFFFFF00
:020000040030CA
:0E00000000051F1FFF8385FF0FC00FE00F409C
:00000001FF
