:04000000F4EF0FF01A
:100800000001000A006400E803102748554D4544E4
:100810004954593A200054494D453A200044415426
:10082000453A200054454D503A20002E25642000C2
:100830002E2564000D0A002C00002B50800B386E12
:100840002B502B243A6E2AAE28EF04F02AEF04F046
:100850002DEF04F03A802DEF04F03A50D8B433EF86
:1008600004F035EF04F04CEF04F03A28D8A43BEF45
:1008700004F03DEF04F047EF04F0000E286E000E88
:10088000296E000E2A6E000E2B6E47EF04F02A8EA2
:10089000000E2B6E56EF04F0000E286E000E296E2F
:1008A000000E2A6E000E2B6E56EF04F02F50800BB8
:1008B000396E38503918D8B460EF04F062EF04F0A4
:1008C00065EF04F0388C65EF04F02F502F24396E5B
:1008D0002EAE6DEF04F06FEF04F072EF04F039808C
:1008E00072EF04F03950D8B478EF04F07AEF04F0E6
:1008F00091EF04F03928D8A480EF04F082EF04F0DF
:100900008CEF04F0000E2C6E000E2D6E000E2E6E7D
:10091000000E2F6E8CEF04F02E8E000E2F6E9BEFCC
:1009200004F0000E2C6E000E2D6E000E2E6E000ECA
:100930002F6E9BEF04F03A50395CD8B0A2EF04F070
:10094000A4EF04F0CFEF04F038ACA9EF04F0ABEF64
:1009500004F0AFEF04F0800E381AAFEF04F03AC0A5
:100960003BF039C03AF03BC039F028C03BF02CC016
:1009700028F03BC02CF029C03BF02DC029F03BC033
:100980002DF02AC03BF02EC02AF03BC02EF02BC029
:100990003BF02FC02BF03BC02FF0CFEF04F0000E48
:1009A0003B6E3A50306E316A301E311E304A312A69
:1009B0003950326E336A305032263150332233BED2
:1009C000EBEF04F0335009E11A0E325CD8A0EBEFE4
:1009D00004F0EDEF04F02AEF05F0285029102A105A
:1009E0002B10D8A4F6EF04F0F9EF04F0010EFAEFA3
:1009F00004F0000E3B6E000E286E000E296E000EF5
:100A00002A6E000E2B6E39C03AF035EF05F02AEF52
:100A100005F03BA00EEF05F010EF05F016EF05F026
:100A2000D8903B3001093B6E1AEF05F0D8903B326D
:100A30001AEF05F028A01FEF05F021EF05F024EFD5
:100A400005F03B8E24EF05F02B342B322A3229326D
:100A500028323A2A39503A5CD8A031EF05F033EF0A
:100A600005F009EF05F035EF05F038BC3AEF05F079
:100A70003CEF05F085EF05F03A50D8A442EF05F0C1
:100A800044EF05F050EF05F0000E286E000E296EC1
:100A9000000E2A6E000E2B6EDFEF06F0DFEF06F081
:100AA0002C5028262D5029222E502A222F502B221E
:100AB0002BA05DEF05F05FEF05F035EF06F03BA0F2
:100AC00064EF05F066EF05F06DEF05F0D8903B326E
:100AD0003B5001093B6E71EF05F0D8903B3271EF4E
:100AE00005F028A076EF05F078EF05F07BEF05F034
:100AF0003B8E7BEF05F02B342B322A322932283201
:100B00003A2A35EF06F035EF06F02C50285C2D50D0
:100B100029582E502A582B50800A306E2F50800AA8
:100B20003058D8B096EF05F098EF05F0D6EF05F005
:100B300028C030F029C031F02AC032F02BC033F089
:100B4000301E311E321E331E302A000E3122322258
:100B500033222C503024346E2D503120356E2E50DF
:100B60003220366E2F503320376EFF0E3424286E1D
:100B7000FF0E3520296EFF0E36202A6EFF0E37201D
:100B80002B6E800E381A3B6C3B50D8A4CAEF05F090
:100B9000CCEF05F0DEEF05F0010E2826000E29222D
:100BA0002A222B22DEEF05F0DEEF05F02C50285E26
:100BB0002D50295A2E502A5A2F502B5A285029107E
:100BC0002A102B10D8A4E7EF05F0E9EF05F02AEF83
:100BD00006F03B50D8A4EFEF05F0F1EF05F02AEF57
:100BE00006F0000E286E000E296E000E2A6E000E12
:100BF0002B6EDFEF06F0DFEF06F02AEF06F0D8905D
:100C0000283629362A362B363BAE09EF06F00BEF95
:100C100006F00EEF06F028800EEF06F03BA013EF73
:100C200006F015EF06F019EF06F0D8803B361DEF01
:100C300006F0D8903B361DEF06F03A50D8B423EFBB
:100C400006F025EF06F02AEF06F03A062AEF06F046
:100C50002AEF06F02AAE2FEF06F031EF06F0FFEF95
:100C600005F035EF06F035EF06F0000E396E3BAEBD
:100C70003CEF06F03EEF06F05AEF06F03BC030F0D6
:100C80007F0E3016D8B447EF06F049EF06F04DEF6F
:100C900006F0010E396E5AEF06F028A052EF06F06A
:100CA00054EF06F05AEF06F0010E396E5AEF06F0D7
:100CB0005AEF06F03950D8B460EF06F062EF06F054
:100CC00093EF06F0010E2826000E29222A222B225D
:100CD0002BA06DEF06F06FEF06F093EF06F028C043
:100CE00030F029C031F02AC032F02BC033F0333459
:100CF000333232323132303230C028F031C029F054
:100D000032C02AF033C02BF03A28D8B48AEF06F06C
:100D10008CEF06F093EF06F03A2A93EF06F093EF8C
:100D200006F093EF06F03A28D8B499EF06F09BEF5F
:100D300006F0A5EF06F03A50D8A4A1EF06F0A3EF15
:100D400006F0BBEF06F0A5EF06F0000E286E000ED1
:100D5000296E000E2A6E000E2B6E3A50D8A4B3EF07
:100D600006F0B5EF06F0BBEF06F0000E386EBBEFF5
:100D700006F0BBEF06F03AA0C0EF06F0C2EF06F0B7
:100D8000C5EF06F02A8EC8EF06F02A9EC8EF06F0DF
:100D9000D8903A302B6E38AED0EF06F0D2EF06F096
:100DA000D5EF06F02B8ED5EF06F028C028F029C02D
:100DB00029F02AC02AF02BC02BF0DFEF06F012003A
:100DC0001250800B1B6E12501224266E11AEEBEFE8
:100DD00006F0EDEF06F0F0EF06F02680F0EF06F0FB
:100DE0002650D8B4F6EF06F0F8EF06F00FEF07F054
:100DF0002628D8A4FEEF06F000EF07F00AEF07F070
:100E0000000E0F6E000E106E000E116E000E126EB0
:100E10000AEF07F0118E000E126E19EF07F0000EA8
:100E20000F6E000E106E000E116E000E126E19EF96
:100E300007F01650800B1B1A16501624276E15AE9D
:100E400024EF07F026EF07F029EF07F0278029EFBE
:100E500007F02750D8B42FEF07F031EF07F048EF35
:100E600007F02728D8A437EF07F039EF07F043EF52
:100E700007F0000E136E000E146E000E156E000EBD
:100E8000166E43EF07F0158E000E166E52EF07F048
:100E9000000E136E000E146E000E156E000E166E10
:100EA00052EF07F01350141015101610D8A45BEF72
:100EB00007F05DEF07F075EF07F0000E0F6E000E04
:100EC000106E000E116E000E126E800E11127F0E4B
:100ED00012120FC00FF010C010F011C011F012C0AC
:100EE00012F0EDEF08F0EDEF08F02650D8A47BEFFC
:100EF00007F07DEF07F091EF07F0000E0F6E000E88
:100F0000106E000E116E000E126E0FC00FF010C0AA
:100F100010F011C011F012C012F0EDEF08F0EDEF7B
:100F200008F02750176E186A171E181E174A182A3D
:100F30002650196E1A6A1750192618501A227F0E59
:100F40001924206E000E1A20216E0FC01CF010C054
:100F50001DF011C01EF012C01FF0000E0F6E000E2B
:100F6000106E000E116E000E126E000E226E000E3C
:100F7000236E000E246E000E256E000E276EFDEF10
:100F800007F02750D8B4C7EF07F0C9EF07F0E2EF3A
:100F900007F0D8901C361D361E361F36D8900F36F7
:100FA00010361136123625AED8EF07F0DAEF07F01B
:100FB000DBEF07F00F80D890223623362436253613
:100FC000E2EF07F013501C5C14501D5815501E58CA
:100FD00016501F58D8A0EFEF07F0F1EF07F0FCEF25
:100FE00007F0258C13501C5E14501D5A15501E5AC4
:100FF00016501F5AFCEF07F0272A190E276403EF3B
:1010000008F005EF08F0C1EF07F007EF08F01C50FB
:101010001D101E101F10D8B410EF08F012EF08F0CA
:101020002EEF08F022802EEF08F02EEF08F0D89077
:101030000F3610361136123625AE21EF08F023EFA9
:1010400008F024EF08F00F80D8902236233624369B
:1010500025362006D8A021062EEF08F011AE33EF7A
:1010600008F035EF08F017EF08F037EF08F0000E42
:10107000276E25AE3EEF08F040EF08F068EF08F06D
:10108000FF0E2214176EFF0E2314186EFF0E241489
:10109000196E7F0E25141A6E1750181019101A1099
:1010A000D8B455EF08F057EF08F05BEF08F0010EE9
:1010B000276E68EF08F00FA060EF08F062EF08F00D
:1010C00068EF08F0010E276E68EF08F068EF08F08F
:1010D0002750D8B46EEF08F070EF08F098EF08F0E2
:1010E000010E0F26000E10221122122212A07BEFF9
:1010F00008F07DEF08F098EF08F00FC017F010C06F
:1011000018F011C019F012C01AF01A341A3219323C
:101110001832173217C00FF018C010F019C011F0B4
:101120001AC012F0204A212A98EF08F098EF08F030
:1011300021BEA3EF08F0215008E12028D8A0A3EF9A
:1011400008F0A5EF08F0B2EF08F0000E216E20685D
:10115000000E0F6E000E106E000E116E000E126E5D
:10116000B2EF08F021BEBFEF08F0215006E12004E5
:10117000D8B0BDEF08F0BFEF08F0CFEF08F0000ED9
:10118000216E000E206E000E0F6E000E106E000E0F
:10119000116E000E126E000E1B6ECFEF08F020C015
:1011A00026F026A0D6EF08F0D8EF08F0DBEF08F025
:1011B000118EDEEF08F0119EDEEF08F0D890263099
:1011C000126E1B5012120FC00FF010C010F011C0A1
:1011D00011F012C012F0EDEF08F01200D20ED36E33
:1011E000939493967BEC0FF0F28EF28C9D8A800E96
:1011F0003C6E250E3D6E000E3E6E000E3F6E30ECD6
:101200000DF0FFEC0FF01A0E446EF80EE82EFED72C
:10121000442EFCD700D0B7EC0FF018EC0FF07AECAE
:101220000DF0536E7AEC0DF0516E7AEC0DF0546EB9
:101230007AEC0DF0526E7AEC0DF0466E000E0A6EEE
:101240001D0E0B6E080E0C6E010EE3EC0CF0000E82
:101250000A6E160E0B6E080E0C6E020EE3EC0CF00E
:10126000470E016E000E026E000E046E000E036E3D
:10127000000E066E0A0E056E5BEC0FF0470E0D6E4B
:10128000000E0E6E310E0F6E080E106E54C011F06F
:10129000126A4AEC0AF0000E0A6E240E0B6E080E5B
:1012A0000C6E030EE3EC0CF0470E086E000E096E98
:1012B000BCEC0EF0470E0D6E000E0E6E300E0F6E73
:1012C000080E106E52C011F0126A4AEC0AF0470E76
:1012D000086E000E096EBCEC0EF0DF0ED6EC0FF0BF
:1012E000430ED6EC0FF0470E016E000E026E000E9C
:1012F000046E000E036E000E066E0A0E056E5BECA9
:101300000FF0470E0D6E000E0E6E310E0F6E080EB2
:10131000106E53C011F0126A4AEC0AF0000E0A6E09
:101320000B0E0B6E080E0C6E040EE3EC0CF0470E69
:10133000086E000E096EBCEC0EF0470E0D6E000E2E
:101340000E6E2B0E0F6E080E106E51C011F0126A49
:101350004AEC0AF0470E086E000E096EBCEC0EF067
:10136000250ED6EC0FF054C001F05350EFEC0EF008
:10137000470E0D6E000E0E6E310E0F6E080E106EC3
:1013800053C011F0126A4AEC0AF0920E016E000E80
:10139000026E470E036E000E046E3AEC0FF0470E1D
:1013A0000D6E000E0E6E300E0F6E080E106E51C0D8
:1013B00011F0126A4AEC0AF0920E016E000E026EF3
:1013C000470E036E000E046E06EC0EF0060E456E20
:1013D000130E446EAE0EE82EFED7442EFCD7452EDB
:1013E000FAD7920E016E000E026E370E036E080ED3
:1013F000046E06EC0EF0470E0D6E000E0E6E310EF2
:101400000F6E080E106E54C011F0126A4AEC0AF00A
:10141000920E016E000E026E470E036E000E046EF9
:1014200006EC0EF0470E0D6E000E0E6E300E0F6EB7
:10143000080E106E52C011F0126A4AEC0AF0920EB9
:10144000016E000E026E470E036E000E046E06EC77
:101450000EF0920E016E000E026E340E036E080E38
:10146000046E06EC0EF0920E026E000E036E9BEC04
:101470000FF0060E456E130E446EAE0EE82EFED72C
:10148000442EFCD7452EFAD70BEF09F00BEF09F0ED
:1014900000EF00F0110E146E000E156E29EF0BF028
:1014A000250E1A18D8B457EF0AF059EF0AF063EF77
:1014B0000AF00DC0D9FF0EC0DAFF1AC0DFFF0D4AD7
:1014C0000E2A29EF0BF0000E166E71EF0AF03EEFB8
:1014D0000BF089EF0AF089EF0AF029EF0BF089EFA2
:1014E0000AF00FC0F6FF10C0F7FF0F4A102A0800DD
:1014F000F5CF1AF01A50000AD8B43EEF0BF0640A88
:10150000D8B489EF0AF00D0AD8B489EF0AF029EFB0
:101510000BF014C0D9FF15C0DAFFDECF18F0DDCF15
:1015200019F0020E1426000E152219BE9CEF0AF0C7
:101530009AEF0AF0A4EF0AF0030E1612186C191EA7
:10154000D8B0192AA4EF0AF0010E1A6E050E1A1867
:10155000D8A4ADEF0AF0AFEF0AF0B3EF0AF0D8EF7E
:101560000AF0D8EF0AF01A50020D010EF324F66EBD
:10157000080EF420F76E0900F550185C0900F550CC
:101580001958D8B0C6EF0AF0C8EF0AF0CCEF0AF04D
:10159000D8EF0AF0D8EF0AF01A2A050E1A18D8A4C4
:1015A000D4EF0AF0D6EF0AF0B3EF0AF0D8EF0AF062
:1015B00016C013F0030E1316D8B4E1EF0AF0E3EFF0
:1015C0000AF0EDEF0AF00DC0D9FF0EC0DAFF2D0EC4
:1015D000DF6E0D4A0E2AEDEF0AF01AC017F01CEF6D
:1015E0000BF01750020D010EF324F66E080EF420D6
:1015F000F76E0900F5CF03F00A00F5CF04F018C02C
:1016000001F019C002F0C2EC0DF001C008F002C0F8
:1016100009F0000E0B6E0A0E0A6E46EC0EF0085032
:10162000300F1A6E0DC0D9FF0EC0DAFF1AC0DFFFEF
:101630000D4A0E2A1CEF0BF017061728D8A423EF2B
:101640000BF025EF0BF0F1EF0AF029EF0BF029EF8B
:101650000BF00FC0F6FF10C0F7FF0F4A102A08006A
:10166000F5CF1AF01A50D8A438EF0BF03AEF0BF080
:1016700050EF0AF03EEF0BF03EEF0BF00DC0D9FF3C
:101680000EC0DAFF000EDF6E46EF0BF01200096E9F
:101690000950D8B44EEF0BF050EF0BF072EF0BF097
:1016A00004BE57EF0BF055EF0BF072EF0BF001C0DB
:1016B00005F002C006F003C007F004C008F0051EE4
:1016C000061E071E081E052A000E062207220822F3
:1016D00005C00BF006C00CF007C00DF008C00EF0FE
:1016E0007CEF0BF001C00BF002C00CF003C00DF05A
:1016F00004C00EF07CEF0BF0015002100310041038
:10170000D8A485EF0BF087EF0BF093EF0BF0000EF2
:10171000016E000E026E000E036E000E046E39EFB5
:101720000CF039EF0CF0960E0A6E9FEF0BF00A2AC0
:10173000D8900E320D320C320B329FEF0BF0000EB0
:101740000B14056E000E0C14066E000E0D14076EC1
:10175000FE0E0E14086E0550061007100810D8A4CF
:10176000B4EF0BF0B6EF0BF097EF0BF0C6EF0BF00A
:10177000C6EF0BF00A2A010E0B26000E0C220D22DA
:101780000E22D8900E320D320C320B32000E0B149A
:10179000056E000E0C14066E000E0D14076EFF0E83
:1017A0000E14086E0550061007100810D8A4DBEFC1
:1017B0000BF0DDEF0BF0BAEF0BF0E9EF0BF0E9EF18
:1017C0000BF00A06D8900B360C360D360E36E9EFC4
:1017D0000BF00DBEEEEF0BF0F0EF0BF0FAEF0BF0AD
:1017E000020E0A60F6EF0BF0F8EF0BF0E1EF0BF0F2
:1017F000FAEF0BF00AB0FFEF0BF001EF0CF009EF7E
:101800000CF0FF0E0B16FF0E0C167F0E0D16FF0EC2
:101810000E16D8900A320AC005F0066A076A086AEE
:1018200005C008F0076A066A056A05500B120650E3
:101830000C1207500D1208500E120950D8B423EFA5
:101840000CF025EF0CF02FEF0CF004BE2CEF0CF099
:101850002AEF0CF02FEF0CF00E8E2FEF0CF00BC0D8
:1018600001F00CC002F00DC003F00EC004F039EF1F
:101870000CF01200033404340A6E0A50D8A443EF6B
:101880000CF045EF0CF051EF0CF0000E016E000E65
:10189000026E000E036E000E046EE2EF0CF0E2EF3B
:1018A0000CF001C005F002C006F003C007F004C050
:1018B00008F0200E61EF0CF0D890083207320632A3
:1018C0000532E82E5CEF0CF00550096E038EFF0E1A
:1018D0000116FF0E0216FF0E0316000E0416960EDA
:1018E0000A5E0ABE78EF0CF076EF0CF09CEF0CF07D
:1018F0000A50800A970FD8B080EF0CF082EF0CF0FE
:1019000090EF0CF0000E016E000E026E000E036EE2
:10191000000E046EE2EF0CF0E2EF0CF090EF0CF032
:10192000D89004320332023201320A3E90EF0CF0BA
:10193000C6EF0CF0C6EF0CF01F0E0A64A2EF0CF01D
:10194000A4EF0CF0BAEF0CF0000E016E000E026E68
:10195000000E036E000E046EE2EF0CF0E2EF0CF0EE
:10196000BAEF0CF0D89001360236033604360A0678
:10197000BAEF0CF00A50D8A4C0EF0CF0C2EF0CF094
:10198000B2EF0CF0C6EF0CF0C6EF0CF00950D8B473
:10199000CCEF0CF0CEEF0CF0D8EF0CF0041E031ED1
:1019A000021E016C000E022203220422D8EF0CF06A
:1019B00001C001F002C002F003C003F004C004F053
:1019C000E2EF0CF012000D6E0D04D8A4EAEF0CF05B
:1019D000ECEF0CF0F3EF0CF00A500F0B8009E5EC84
:1019E0000FF029EF0DF0020E0D18D8A4FAEF0CF04D
:1019F000FCEF0CF003EF0DF00A500F0BC009E5EC03
:101A00000FF029EF0DF0030E0D18D8A40AEF0DF01A
:101A10000CEF0DF013EF0DF00A500F0B9409E5ECED
:101A20000FF029EF0DF0040E0D18D8A41AEF0DF0E9
:101A30001CEF0DF029EF0DF00A500F0BD409E5EC67
:101A40000FF029EF0DF029EF0DF029EF0DF029EF40
:101A50000DF00BC008F00CC009F0BCEC0EF0120049
:101A6000949C948E3CC001F03DC002F03EC003F057
:101A70003FC004F0010E47EC0BF001C013F002C0B0
:101A800014F003C015F004C016F0000E0F6E240E03
:101A9000106EF40E116E470E126EE0EC06F00FC0E1
:101AA00028F010C029F011C02AF012C02BF0000E4F
:101AB0002C6E000E2D6E800E2E6EBF0E2F6E1DEC46
:101AC00004F028C040F029C041F02AC042F02BC0E9
:101AD00043F040C001F041C002F042C003F043C0F7
:101AE00004F03AEC0CF00150AF6E200EAC6E900E8C
:101AF000AB6E1200000E026E000E016E070E016446
:101B000084EF0DF086EF0DF08CEF0DF0BEEF0DF0D1
:101B1000BEEF0DF08CEF0DF080A091EF0DF093EF84
:101B20000DF08CEF0DF095EF0DF0140EE82EFED7B2
:101B300080A09DEF0DF09FEF0DF0A3EF0DF0D8808A
:101B40000236AAEF0DF002500224026EAAEF0DF049
:101B5000AAEF0DF080B0AFEF0DF0B1EF0DF0AAEFEE
:101B60000DF0B3EF0DF0012A070E0164BAEF0DF08E
:101B7000BCEF0DF08CEF0DF0BEEF0DF00250C1EF99
:101B80000DF01200000E066E000E056E03500410DC
:101B9000D8B4CDEF0DF0CFEF0DF001EF0EF0010E48
:101BA000076ED9EF0DF0D89003360436072AD9EF27
:101BB0000DF004AEDEEF0DF0E0EF0DF0D3EF0DF021
:101BC000E4EF0DF0E4EF0DF0D89005360636035043
:101BD000015C04500258D8A0F0EF0DF0F2EF0DF0C8
:101BE000F9EF0DF00350015E0450025A0580F9EF41
:101BF0000DF0D89004320332072EE4EF0DF001EF20
:101C00000EF005C001F006C002F0120001C005F0A0
:101C100002C006F010EF0EF0054A062A10EF0EF093
:101C200005C0D9FF06C0DAFFDF50D8A41AEF0EF0C6
:101C30001CEF0EF00CEF0EF026EF0EF026EF0EF07C
:101C4000054A062A034A042A26EF0EF003C0F6FFCF
:101C500004C0F7FFF86A05C0D9FF06C0DAFF070E17
:101C6000F76403D00800F55005D0F6CFE9FFF7CFB1
:101C7000EAFFEF50DF6EDF50D8A441EF0EF043EFE4
:101C80000EF020EF0EF045EF0EF012000A500B1090
:101C9000D8B44DEF0EF04FEF0EF07DEF0EF0010EC9
:101CA0000C6E59EF0EF0D8900A360B360C2A59EF0D
:101CB0000EF00BAE5EEF0EF060EF0EF053EF0EF095
:101CC00064EF0EF064EF0EF00A50085C0B500958F8
:101CD000D8A06DEF0EF06FEF0EF075EF0EF00A501A
:101CE000085E0B50095A75EF0EF0D8900B320A328D
:101CF0000C2E64EF0EF07DEF0EF008C008F009C066
:101D000009F01200000E046E000E036EAEEF0EF02E
:101D1000000E066E000E056E065009E1A50E055C6C
:101D2000D8A095EF0EF097EF0EF09BEF0EF0AAEF14
:101D30000EF0AAEF0EF0054A062A065009E1A50E9C
:101D4000055CD8A0A6EF0EF0A8EF0EF09BEF0EF00A
:101D5000AAEF0EF0034A042AAEEF0EF00150035C26
:101D600002500458D8A0B7EF0EF0B9EF0EF088EF8C
:101D70000EF0BBEF0EF01200D4EF0EF008C0F6FF2D
:101D800009C0F7FFF86A070EF76403D00800F550A2
:101D900005D0F6CFE9FFF7CFEAFFEF50D6EC0FF012
:101DA000084A092AD4EF0EF008C0F6FF09C0F7FF71
:101DB000F86A070EF76403D00800F55005D0F6CF97
:101DC000E9FFF7CFEAFFEF500009D8A4EAEF0EF0E1
:101DD000ECEF0EF0BEEF0EF0EEEF0EF01200046E20
:101DE000180E0464F6EF0EF0F8EF0EF008EF0FF0A7
:101DF000150E0160FEEF0EF000EF0FF017EF0FF081
:101E00000150D8B406EF0FF008EF0FF017EF0FF006
:101E10008A86060E036E130E026EAE0EE82EFED7F5
:101E2000022EFCD7032EFAD78A9617EF0FF0120076
:101E30001AEF0FF080B01FEF0FF021EF0FF01AEF45
:101E40000FF025EF0FF025EF0FF080A02AEF0FF035
:101E50002CEF0FF025EF0FF030EF0FF030EF0FF019
:101E600080B035EF0FF037EF0FF030EF0FF039EFB4
:101E70000FF0120001C005F002C006F046EF0FF0AF
:101E8000054A062A034A042A46EF0FF003C0D9FF89
:101E900004C0DAFF05C0E1FF06C0E2FFDFCFE7FFC5
:101EA000E750D8A456EF0FF058EF0FF040EF0FF0C7
:101EB0005AEF0FF0120001C007F002C008F06BEFFC
:101EC0000FF007C0D9FF08C0DAFF03C0DFFF074AE1
:101ED000082A6BEF0FF00506D8A00606052806E1D4
:101EE0000628D8A476EF0FF078EF0FF061EF0FF02F
:101EF0007AEF0FF01200000E946E000E956E000E39
:101F0000026E140E016E82EC0EF0380EE5EC0FF04E
:101F10000C0EE5EC0FF0060EE5EC0FF0010EE5EC13
:101F20000FF0000E026E030E016E82EC0EF0800EBA
:101F3000E5EC0FF01200A8EF0FF002C0D9FF03C0CC
:101F4000DAFFDF50C7EC0FF0024A032AA8EF0FF0C8
:101F500002C0D9FF03C0DAFFDF50D8A4B2EF0FF000
:101F6000B4EF0FF09DEF0FF0B6EF0FF0120092906C
:101F700089902F0E016EC00EE82EFED7012EFCD7E1
:101F800089800D0EE82EFED700F092801200016EBF
:101F9000CAEF0FF09EA8CFEF0FF0D1EF0FF0CAEF0E
:101FA0000FF0D3EF0FF001C0ADFF1200076E07C0B6
:101FB0008CFF8B808B928B8400F08B94000E026ED2
:101FC000030E016E82EC0EF01200076E07C08CFF4C
:101FD0008B908B928B8400F08B94000E026E030E1C
:101FE000016E82EC0EF0120000EE60F0640EEE6AFC
:101FF000E806FDE1000EF86E0001EEEF08F09268D1
:10200000C168920EC06E000EC46E000EC36E120048
:020000040020DA
:08000000FFFFFFFFFFFFFFFF00
:020000040030CA
:0E00000000051F1FFF8385FF0FC00FE00F409C
:00000001FF
