:020000040000FA
:04000000D0EF12F03B
:100800000048554D45444954593A200054494D45F6
:100810003A2000444154453A200054454D503A2076
:10082000002E256420002E2564000D0A002C2000D7
:03083000250000A0
:100834002B50800B346E2B502B24366E2AAE25EFB2
:1008440004F027EF04F028EF04F036803650D8B4D3
:100854002EEF04F030EF04F045EF04F03628D8A46E
:1008640036EF04F038EF04F040EF04F0000E286E89
:10087400000E296E000E2A6E000E2B6E2A8E000EBC
:100884002B6E4DEF04F0000E286E000E296E000E44
:100894002A6E000E2B6E2F50800B356E3450351897
:1008A400D8B457EF04F059EF04F05AEF04F0348C45
:1008B4002F502F24356E2EAE62EF04F064EF04F057
:1008C40065EF04F035803550D8B46BEF04F06DEF6C
:1008D40004F082EF04F03528D8A473EF04F075EF28
:1008E40004F07DEF04F0000E2C6E000E2D6E000E51
:1008F4002E6E000E2F6E2E8E000E2F6E8AEF04F0D9
:10090400000E2C6E000E2D6E000E2E6E000E2F6E3D
:100914003650355CD8B091EF04F093EF04F0BAEFA1
:1009240004F034AC98EF04F09AEF04F09CEF04F078
:10093400800E341A36C037F035C036F037C035F083
:1009440028C037F02CC028F037C02CF029C037F06D
:100954002DC029F037C02DF02AC037F02EC02AF060
:1009640037C02EF02BC037F02FC02BF037C02FF03C
:10097400000E376E365035C030F0316A305E000EEE
:10098400315A31BECFEF04F0315009E11A0E305C18
:10099400D8A0CFEF04F0D1EF04F008EF05F0285011
:1009A40029102A102B10D8A4DAEF04F0DDEF04F09C
:1009B400010EDEEF04F0000E376E000E286E000EFE
:1009C400296E000E2A6E000E2B6E35C036F011EF24
:1009D40005F037A0F0EF04F0F2EF04F0F8EF04F0C4
:1009E400D89037300109376EFAEF04F0D8903732D7
:1009F40028A0FFEF04F001EF05F002EF05F0378EB9
:100A04002B342B322A3229322832362A3550365C9E
:100A1400D8A00FEF05F011EF05F0EBEF04F034BCB4
:100A240016EF05F018EF05F058EF05F03650D8A48E
:100A34001EEF05F020EF05F02AEF05F0000E286EFA
:100A4400000E296E000E2A6E000E2B6E79EF06F052
:100A54002C5028262D5029222E502A222F502B226A
:100A64002BA037EF05F039EF05F0E5EF05F037A0DF
:100A74003EEF05F040EF05F046EF05F0D890373033
:100A84000109376E48EF05F0D890373228A04DEFB2
:100A940005F04FEF05F050EF05F0378E2B342B3275
:100AA4002A3229322832362AE5EF05F02C50285C08
:100AB4002D5029582E502A582B50800A306E2F5012
:100AC400800A3058D8B069EF05F06BEF05F096EF67
:100AD40005F028502C5C306E29502D58316E2A5068
:100AE4002E58326E2B502F58336EFF0E3024286E42
:100AF400FF0E3120296EFF0E32202A6EFF0E3320A6
:100B04002B6E800E341A376C3750D8A48CEF05F056
:100B14008EEF05F09EEF05F0010E2826000E292227
:100B24002A222B229EEF05F02C50285E2D50295AA4
:100B34002E502A5A2F502B5A285029102A102B1085
:100B4400D8A4A7EF05F0A9EF05F0DEEF05F03750C4
:100B5400D8A4AFEF05F0B1EF05F0DEEF05F0000E1D
:100B6400286E000E296E000E2A6E000E2B6E79EF91
:100B740006F0D890283629362A362B3637AEC5EFFC
:100B840005F0C7EF05F0C8EF05F0288037A0CDEFDA
:100B940005F0CFEF05F0D3EF05F0D8803736D5EF69
:100BA40005F0D89037363650D8B4DBEF05F0DDEFDA
:100BB40005F0DEEF05F036062AAEE3EF05F0E5EFCB
:100BC40005F0BBEF05F0000E356E37AEECEF05F027
:100BD400EEEF05F006EF06F037C030F07F0E30166A
:100BE400D8B4F7EF05F0F9EF05F0FDEF05F0010ECD
:100BF400356E06EF06F028A002EF06F004EF06F0CB
:100C040006EF06F0F9EF05F03550D8B40CEF06F016
:100C14000EEF06F039EF06F0010E2826000E292209
:100C24002A222B222BA019EF06F01BEF06F039EF36
:100C340006F028C030F029C031F02AC032F02BC0B1
:100C440033F03334333232323132303230C028F080
:100C540031C029F032C02AF033C02BF03628D8B482
:100C640036EF06F038EF06F039EF06F0362A36286C
:100C7400D8B43FEF06F041EF06F049EF06F03650E6
:100C8400D8A447EF06F049EF06F05BEF06F0000E3C
:100C9400286E000E296E000E2A6E000E2B6E365042
:100CA400D8A457EF06F059EF06F05BEF06F0000EFC
:100CB400346E36A060EF06F062EF06F065EF06F0E2
:100CC4002A8E66EF06F02A9ED89036302B6E34AE0C
:100CD4006EEF06F070EF06F071EF06F02B8E28C071
:100CE40028F029C029F02AC02AF02BC02BF01200CA
:100CF4001250800B1F6E12501224266E11AE85EF17
:100D040006F087EF06F088EF06F026802650D8B468
:100D14008EEF06F090EF06F0A5EF06F02628D8A493
:100D240096EF06F098EF06F0A0EF06F0000E0F6EB7
:100D3400000E106E000E116E000E126E118E000E5B
:100D4400126EADEF06F0000E0F6E000E106E000E68
:100D5400116E000E126E1650800B1F1A16501624B8
:100D6400276E15AEB8EF06F0BAEF06F0BBEF06F04B
:100D740027802750D8B4C1EF06F0C3EF06F0D8EFB0
:100D840006F02728D8A4C9EF06F0CBEF06F0D3EF7E
:100D940006F0000E136E000E146E000E156E000E9B
:100DA400166E158E000E166EE0EF06F0000E136E32
:100DB400000E146E000E156E000E166E13501410F5
:100DC40015101610D8A4E9EF06F0EBEF06F003EFC8
:100DD40007F0000E0F6E000E106E000E116E000E66
:100DE400126E800E11127F0E12121F5012120FC0BB
:100DF4000FF010C010F011C011F012C012F046EF45
:100E040008F02650D8A409EF07F00BEF07F015EF10
:100E140007F0000E0F6E000E106E000E116E000E25
:100E2400126E46EF08F0275026C017F0186A175EB6
:100E3400000E185A7F0E1724206E000E1820216E03
:100E44000FC01BF010C01CF011C01DF012C01EF02A
:100E5400000E0F6E000E106E000E116E000E126E5C
:100E6400000E226E000E236E000E246E000E256E00
:100E7400000E276E76EF07F02750D8B444EF07F042
:100E840046EF07F05DEF07F0D8901B361C361D3691
:100E94001E36D8900F3610361136123625AE55EF61
:100EA40007F057EF07F058EF07F00F80D89022367D
:100EB40023362436253613501B5C14501C58155009
:100EC4001D5816501E58D8A06AEF07F06CEF07F0B3
:100ED40075EF07F0258C13501B5E14501C5A1550E7
:100EE4001D5A16501E5A272A190E27647CEF07F044
:100EF4007EEF07F03EEF07F01B501C101D101E1074
:100F0400D8B487EF07F089EF07F0A1EF07F022804C
:100F1400A1EF07F0D8900F3610361136123625AEF1
:100F240096EF07F098EF07F099EF07F00F80D8904D
:100F340022362336243625362006D8A0210611AEC3
:100F4400A6EF07F0A8EF07F08CEF07F0000E276E6E
:100F540025AEAFEF07F0B1EF07F0D5EF07F0FF0EC6
:100F64002214176EFF0E2314186EFF0E2414196E2C
:100F74007F0E25141A6E1750181019101A10D8B4B1
:100F8400C6EF07F0C8EF07F0CCEF07F0010E276EAD
:100F9400D5EF07F00FA0D1EF07F0D3EF07F0D5EFAF
:100FA40007F0C8EF07F02750D8B4DBEF07F0DDEF08
:100FB40007F001EF08F0010E0F26000E1022112297
:100FC400122212A0E8EF07F0EAEF07F001EF08F0B1
:100FD4000FC017F010C018F011C019F012C01AF0A9
:100FE4001A341A3219321832173217C00FF018C0D7
:100FF40010F019C011F01AC012F0204A212A21BEA3
:101004000CEF08F0215008E12028D8A00CEF08F0DC
:101014000EEF08F019EF08F0000E216E2068000EA4
:101024000F6E000E106E000E116E000E126E21BEB9
:1010340026EF08F0215006E12004D8B024EF08F090
:1010440026EF08F034EF08F0000E216E000E206E3B
:10105400000E0F6E000E106E000E116E000E126E5A
:10106400000E1F6E20C026F026A03BEF08F03DEFD7
:1010740008F040EF08F0118E41EF08F0119ED8906F
:101084002630126EF7EF06F012001EC036F01FC0B5
:1010940037F020C038F021C039F022C03AF023C024
:1010A4003BF024C03CF025C03DF03DBE5CEF08F0B1
:1010B4005FEF08F0010E60EF08F0000E346E356A41
:1010C40034503510D8B469EF08F06BEF08F07BEFBB
:1010D40008F03D1E3C1E3B1E3A1E391E381E371EAC
:1010E400366C000E3722382239223A223B223C2227
:1010F4003D22000165BF81EF08F083EF08F084EF23
:1011040008F0669365BF91EF08F0655106E1640548
:10111400D8B08FEF08F091EF08F097EF08F0000EC9
:10112400316E010E306E9BEF08F064C030F065C084
:1011340031F062C032F063C033F034503510D8A4BB
:10114400A6EF08F0A8EF08F0AFEF08F066A5ADEF42
:1011540008F0AFEF08F0B2EF08F03206D8A033067B
:10116400000E3F6E1F0E3E6E000EB96F36EF09F093
:101174003E06D8A03F069A0E3E24D96E000E3F20AC
:10118400DA6E36C001F037C002F038C003F039C05F
:1011940004F03AC005F03BC006F03CC007F03DC087
:1011A40008F00A0E096E000E0A6E000E0B6E000E99
:1011B4000C6E000E0D6E000E0E6E000E0F6E000E05
:1011C400106E53EC0EF001C026F002C027F003C0ED
:1011D40028F004C029F005C02AF006C02BF007C08F
:1011E4002CF008C02DF026C013F028C014F034EC05
:1011F40012F01350300FDF6E3006D8A031063206DD
:10120400D8A0330636C001F037C002F038C003F06E
:1012140039C004F03AC005F03BC006F03CC007F00A
:101224003DC008F00A0E096E000E0A6E000E0B6E29
:10123400000E0C6E000E0D6E000E0E6E000E0F6E84
:10124400000E106ED4EC0CF001C036F002C037F082
:1012540003C038F004C039F005C03AF006C03BF0D2
:1012640007C03CF008C03DF03FBE41EF09F03F50DD
:1012740008E13E04D8A041EF09F043EF09F074EF10
:1012840009F036503710381039103A103B103C1022
:101294003D10D8A450EF09F052EF09F0BAEF08F06E
:1012A40031BE5FEF09F0315006E13004D8B05DEF94
:1012B40009F05FEF09F0BAEF08F033BE6AEF09F006
:1012C400335008E13204D8A06AEF09F06CEF09F05A
:1012D40074EF09F0000166B372EF09F074EF09F0DE
:1012E400BAEF08F034503510D8A47BEF09F07DEF45
:1012F40009F085EF09F0000166A583EF09F085EF99
:1013040009F0A3EF09F03E06D8A03F06345035108B
:10131400D8A48FEF09F091EF09F097EF09F0000ED0
:101324002F6E2B0E2E6E9BEF09F0000E2F6E2D0EDE
:101334002E6E9A0E3E24D96E000E3F20DA6E2EC019
:10134400DFFF1CC011F01DC012F09A0E3E24136E74
:10135400000E3F20146E32C015F033C016F0EDECD1
:101364000FF011C01CF012C01DF01200D20ED36E8B
:101374009394939654EC12F0F28EF28C9D8A800E24
:10138400386E250E396E000E3A6E000E3B6E50EC30
:1013940010F01AEC13F01A0E5E6EF80EE82EFED75B
:1013A4005E2EFCD700D0E1EC12F0A7EC12F06FEC4B
:1013B40011F00001D16F6FEC11F00001CF6F6FECF1
:1013C40011F00001D26F6FEC11F00001D06F6FECDF
:1013D40011F0000E0A6E130E0B6E080E0C6E010E49
:1013E4009AEC10F0000E0A6E0C0E0B6E080E0C6ECA
:1013F400020E9AEC10F0C50E016E000E026E000E85
:10140400046E000E036E000E066E0A0E056E98EC56
:101414000DF0C50E586E000E596E270E5A6E080E4A
:101424005B6ED2C05CF05D6A9DEC11F0000E0A6E3A
:101434001A0E0B6E080E0C6E030E9AEC10F0C50E0D
:10144400086E000E096E12EC11F0C50E586E000EF7
:10145400596E260E5A6E080E5B6ED0C05CF05D6A43
:101464009DEC11F0C50E086E000E096E12EC11F021
:10147400DF0EF1EC12F0430EF1EC12F0C50E016E2A
:10148400000E026E000E046E000E036E000E066E59
:101494000A0E056E98EC0DF0C50E586E000E596ECE
:1014A400270E5A6E080E5B6ED1C05CF05D6A9DEC2F
:1014B40011F0000E0A6E010E0B6E080E0C6E040E77
:1014C4009AEC10F0C50E086E000E096E12EC11F0C5
:1014D400C50E586E000E596E210E5A6E080E5B6EC4
:1014E400CFC05CF05D6A9DEC11F0C50E086E000E75
:1014F400096E12EC11F0250EF1EC12F0D2C001F0DD
:101504000001D151C6EC11F0C50E586E000E596E93
:10151400270E5A6E080E5B6ED1C05CF05D6A9DECBE
:1015240011F0680E056E000E066EC50E076E000EF5
:10153400086E41EC11F0C50E586E000E596E260E61
:101544005A6E080E5B6ECFC05CF05D6A9DEC11F0C4
:10155400680E0F6E000E106EC50E116E000E126E28
:10156400BDEC12F0680E0F6E000E106E300E116E90
:10157400080E126EBDEC12F0060E5F6E130E5E6E58
:10158400AE0EE82EFED75E2EFCD75F2EFAD7680E7D
:101594000F6E000E106E2D0E116E080E126EBDEC45
:1015A40012F0C50E586E000E596E270E5A6E080EB4
:1015B4005B6ED2C05CF05D6A9DEC11F0680E0F6E3C
:1015C400000E106EC50E116E000E126EBDEC12F000
:1015D400C50E586E000E596E260E5A6E080E5B6EBE
:1015E400D0C05CF05D6A9DEC11F0680E0F6E000EC9
:1015F400106EC50E116E000E126EBDEC12F0680E68
:101604000F6E000E106E2A0E116E080E126EBDECD7
:1016140012F0680E026E000E036E8FEC12F0060ECE
:101624005F6E130E5E6EAE0EE82EFED75E2EFCD7F6
:101634005F2EFAD7D5EF09F000EF00F042C0D9FFD2
:1016440043C0DAFFDECFF6FFDDCFF7FF0800F55029
:10165400250AD8A430EF0BF032EF0BF0DEEF0BF0DD
:1016640042C0D9FF43C0DAFFDE2A000EDD22000E9D
:101674000001636F000E626F62C066F063C067F0C2
:101684006469656942C0D9FF43C0DAFFDECFF6FF63
:10169400DDCFF7FF0800F550640AD8B454EF0BF01F
:1016A40056EF0BF068EF0BF042C0D9FF43C0DAFFEE
:1016B400DECFF6FFDDCFF7FF0800F550690AD8A4A6
:1016C40066EF0BF068EF0BF0A8EF0BF042C0D9FF08
:1016D40043C0DAFFDE2A000EDD2244C0D9FF45C034
:1016E400DAFFDFCF46F0020EDE26DFCF47F0000E32
:1016F400DD2246C0D9FF47C0DAFFDECF48F0DDCF98
:1017040049F0000E49BEFF0E4A6E4B6E4C6E4D6E94
:101714004E6E4F6E40C01CF041C01DF048C01EF01C
:1017240049C01FF04AC020F04BC021F04CC022F049
:101734004DC023F04EC024F04FC025F047EC08F014
:101744001CC040F01DC041F0F9EF0BF042C0D9FFBE
:1017540043C0DAFFDECFF6FFDDCFF7FF0800F55018
:10176400250AD8A4B8EF0BF0BAEF0BF0D1EF0BF0C9
:1017740042C0D9FF43C0DAFFDE2A000EDD22000E8C
:10178400026E250E016E40C003F041C004F088ECE7
:101794000FF0000E416E010E406EF9EF0BF042C0E7
:1017A400D9FF43C0DAFFDE2A000EDD22000E416EAF
:1017B400000E406EF9EF0BF042C0D9FF43C0DAFFD0
:1017C400DECFF6FFDDCFF7FF0800F550016E026AA9
:1017D40040C003F041C004F088EC0FF042C0D9FFD0
:1017E40043C0DAFFDE2A000EDD22CBEF0BF012003D
:1017F400096E0950D8B401EF0CF003EF0CF025EF9B
:101804000CF004BE0AEF0CF008EF0CF025EF0CF01E
:1018140001C005F002C006F003C007F004C008F0E0
:10182400051E061E071E081E052A000E0622072294
:10183400082205C00BF006C00CF007C00DF008C06C
:101844000EF02DEF0CF001C00BF002C00CF003C041
:101854000DF004C00EF00150021003100410D8A4BF
:1018640036EF0CF038EF0CF042EF0CF0000E016E86
:10187400000E026E000E036E000E046ED3EF0CF029
:10188400960E0A6E4CEF0CF00A2AD8900E320D32E6
:101894000C320B32000E0B14056E000E0C14066E87
:1018A400000E0D14076EFE0E0E14086E0550061081
:1018B40007100810D8A461EF0CF063EF0CF046EFAA
:1018C4000CF071EF0CF00A2A010E0B26000E0C220C
:1018D4000D220E22D8900E320D320C320B32000E35
:1018E4000B14056E000E0C14066E000E0D14076E1C
:1018F400FF0E0E14086E0550061007100810D8A429
:1019040086EF0CF088EF0CF065EF0CF090EF0CF024
:101914000A06D8900B360C360D360E360DBE95EFF2
:101924000CF097EF0CF09FEF0CF0020E0A609DEFA5
:101934000CF09FEF0CF08AEF0CF00AB0A4EF0CF05F
:10194400A6EF0CF0A7EF0CF00D9ED8900A320AC057
:1019540005F0066A076A086A05C008F0076A066A9D
:10196400056A05500B1206500C1207500D12085050
:101974000E120950D8B4C1EF0CF0C3EF0CF0CBEF4A
:101984000CF004BECAEF0CF0C8EF0CF0CBEF0CF077
:101994000E8E0BC001F00CC002F00DC003F00EC09F
:1019A40004F01200000E126E10BEDDEF0CF0DBEF3F
:1019B4000CF0EFEF0CF0101E0F1E0E1E0D1E0C1E71
:1019C4000B1E0A1E096C000E0A220B220C220D2289
:1019D4000E220F221022010E126E08BEF6EF0CF03A
:1019E400F4EF0CF008EF0DF0081E071E061E051E8E
:1019F400041E031E021E016C000E02220322042296
:101A04000522062207220822010E121A20EE13F0E4
:101A1400070EDE6AE806FDE209500A100B100C10EE
:101A24000D100E100F101010D8B41BEF0DF01DEF99
:101A34000DF06FEF0DF0010E116E2BEF0DF0D8903D
:101A440009360A360B360C360D360E360F3610367E
:101A5400112A10AE30EF0DF032EF0DF021EF0DF042
:101A6400D8901336143615361636173618361936F6
:101A74001A360950015C0A5002580B5003580C5096
:101A840004580D5005580E5006580F500758105062
:101A94000858D8A050EF0DF052EF0DF063EF0DF0A1
:101AA4000950015E0A50025A0B50035A0C50045A52
:101AB4000D50055A0E50065A0F50075A1050085A26
:101AC4001380D89010320F320E320D320C320B329A
:101AD4000A320932112E32EF0DF01250D8B475EFDC
:101AE4000DF077EF0DF087EF0DF01A1E191E181E7A
:101AF400171E161E151E141E136C000E142215221A
:101B040016221722182219221A2213C001F014C017
:101B140002F015C003F016C004F017C005F018C099
:101B240006F019C007F01AC008F0120001C00BF04B
:101B340002C00CF005500610D8A4A3EF0DF0A5EFD9
:101B44000DF0A7EF0DF052EF0EF00BC0D9FF0CC053
:101B5400DAFF03C0DFFF05500B24076E06500C208C
:101B6400086EFF0E0724D96EFF0E0820DA6E03C03C
:101B7400DFFF065007E1030E055CD8B0C4EF0DF09B
:101B8400C6EF0DF0C8EF0DF052EF0EF020EE01F0AD
:101B94000B50D9260C50DA2203C0DFFF20EE02F0EE
:101BA4000B50D9260C50DA2203C0DFFF05500B245A
:101BB400076E06500C20086EFE0E0724D96EFF0E29
:101BC4000820DA6E03C0DFFF05500B24076E0650B1
:101BD4000C20086EFD0E0724D96EFF0E0820DA6E65
:101BE40003C0DFFF065007E1070E055CD8B0FDEF28
:101BF4000DF0FFEF0DF001EF0EF052EF0EF020EEBE
:101C040003F00B50D9260C50DA2203C0DFFF055035
:101C14000B24076E06500C20086EFC0E0724D96EA8
:101C2400FF0E0820DA6E03C0DFFF065007E1090E3D
:101C3400055CD8B020EF0EF022EF0EF024EF0EF08A
:101C440052EF0EF00BC007F00CC008F0071E081E80
:101C5400074A082A030E0714096E0A6A09500B265C
:101C64000A500C220950055E0A50065AFC0E05164D
:101C7400FF0E061649EF0EF00BC0D9FF0CC0DAFFB9
:101C840003C0DFFF0506D8A006060B4A0C2A055040
:101C94000610D8A450EF0EF052EF0EF03EEF0EF007
:101CA4001200000E126E08BE5CEF0EF05AEF0EF03A
:101CB4006EEF0EF0081E071E061E051E041E031EF0
:101CC400021E016C000E02220322042205220622B7
:101CD40007220822010E126E10BE75EF0EF073EF8C
:101CE4000EF085EF0EF0101E0F1E0E1E0D1E0C1EA4
:101CF4000B1E0A1E096C000E0A220B220C220D2256
:101D04000E220F22102209500A100B100C100D1075
:101D14000E100F101010D8B492EF0EF094EF0EF0D6
:101D2400DCEF0EF0010E116EA2EF0EF0D890093622
:101D34000A360B360C360D360E360F361036112A8F
:101D440010AEA7EF0EF0A9EF0EF098EF0EF00950C9
:101D5400015C0A5002580B5003580C5004580D50A3
:101D640005580E5006580F50075810500858D8A060
:101D7400BEEF0EF0C0EF0EF0D0EF0EF00950015E92
:101D84000A50025A0B50035A0C50045A0D50055A6B
:101D94000E50065A0F50075A1050085AD890103255
:101DA4000F320E320D320C320B320A320932112E3E
:101DB400A9EF0EF01250D8B4E2EF0EF0E4EF0EF0FB
:101DC400F4EF0EF0081E071E061E051E041E031E59
:101DD400021E016C000E02220322042205220622A6
:101DE4000722082201C001F002C002F003C003F080
:101DF40004C004F005C005F006C006F007C007F0F3
:101E040008C008F01200033404340A6E0A50D8A43F
:101E14000EEF0FF010EF0FF01AEF0FF0000E016E3F
:101E2400000E026E000E036E000E046E87EF0FF0BC
:101E340001C005F002C006F003C007F004C008F0BA
:101E4400200E2AEF0FF0D8900832073206320532FE
:101E5400E82E25EF0FF00550096E038EFF0E0116D4
:101E6400FF0E0216FF0E0316000E0416960E0A5EEF
:101E74000ABE41EF0FF03FEF0FF057EF0FF00A509B
:101E8400800A970FD8B049EF0FF04BEF0FF04DEFEA
:101E94000FF010EF0FF0D890043203320232013207
:101EA4000A3E4DEF0FF06FEF0FF01F0E0A645DEF67
:101EB4000FF05FEF0FF067EF0FF010EF0FF0D89017
:101EC40001360236033604360A060A50D8A46DEFEA
:101ED4000FF06FEF0FF061EF0FF00950D8B475EF0A
:101EE4000FF077EF0FF07FEF0FF0041E031E021EBA
:101EF400016C000E02220322042201C001F002C080
:101F040002F003C003F004C004F0120003500410F4
:101F1400D8B48FEF0FF091EF0FF09AEF0FF003505A
:101F24000410D8A498EF0FF09AEF0FF09FEF0FF082
:101F3400015023EC13F0ECEF0FF020EE04F003500B
:101F4400D9260450DA22DE50DE10D8B4ACEF0FF0FC
:101F5400AEEF0FF0C9EF0FF020EE04F00350D926D6
:101F64000450DA2210EE02F00350E1260450E2227B
:101F7400DE50E65CE650800A096EDE50800A09589D
:101F8400D8B0C7EF0FF0C9EF0FF0ECEF0FF020EE71
:101F940002F00350D9260450DA22DECF05F0DDCF5B
:101FA40006F003C0D9FF04C0DAFFDECF07F0DDCFAF
:101FB40008F005500724D96E06500820DA6E01C0D7
:101FC400DFFF20EE02F00350D9260450DA22DE2A85
:101FD400000EDD221200000166A1F3EF0FF0F5EF11
:101FE4000FF0FFEF0FF013C00AF014C00BF011C094
:101FF4000CF012C00DF012EC12F016BE04EF10F04B
:1020040006EF10F00CEF10F015C01AF016C01BF01C
:1020140010EF10F0000E1B6E000E1A6E000E196EFB
:10202400000E186E22EF10F0000E026E200E016EEC
:1020340011C003F012C004F088EC0FF0184A192AFA
:102044001A50185C1950800A176E1B50800A1758D2
:10205400D8A02FEF10F031EF10F016EF10F00001C0
:1020640066B137EF10F039EF10F043EF10F013C002
:102074000AF014C00BF011C00CF012C00DF012ECF9
:1020840012F013C001F014C002F074EC12F01A50F4
:102094000124116E1B500220126E1200949C948E27
:1020A40038C001F039C002F03AC003F03BC004F07C
:1020B400010EFAEC0BF001C013F002C014F003C0DF
:1020C40015F004C016F0000E0F6E240E106EF40E00
:1020D400116E470E126E7AEC06F00FC028F010C095
:1020E40029F011C02AF012C02BF0000E2C6E000E45
:1020F4002D6E800E2E6EBF0E2F6E1AEC04F028C0CB
:102104003CF029C03DF02AC03EF02BC03FF03CC05B
:1021140001F03DC002F03EC003F03FC004F005EC06
:102124000FF00150AF6E200EAC6E900EAB6E12002D
:102134000D6E0D04D8A4A1EF10F0A3EF10F0AAEFD8
:1021440010F00A500F0B800900EC13F0DAEF10F0D6
:10215400020E0D18D8A4B1EF10F0B3EF10F0BAEFDF
:1021640010F00A500F0BC00900EC13F0DAEF10F076
:10217400030E0D18D8A4C1EF10F0C3EF10F0CAEF8E
:1021840010F00A500F0B940900EC13F0DAEF10F082
:10219400040E0D18D8A4D1EF10F0D3EF10F0DAEF3D
:1021A40010F00A500F0BD40900EC13F0DAEF10F022
:1021B4000BC008F00CC009F012EC11F0120052C070
:1021C40056F053C057F0000E0001616F000E606FAF
:1021D400FFEF10F050C040F051C041F0560E426E77
:1021E400000E436E54C044F055C045F020EC0BF093
:1021F4004050000160274150612356C0F6FF57C08C
:10220400F7FF0800F5500009D8A40BEF11F00DEF0B
:1022140011F0ECEF10F060C050F061C051F012000A
:1022240028EF11F008C0F6FF09C0F7FFF86A070E9F
:10223400F76403D00800F55005D0F6CFE9FFF7CFD7
:10224400EAFFEF50F1EC12F0084A092A08C0F6FF41
:1022540009C0F7FFF86A070EF76403D00800F550C9
:1022640005D0F6CFE9FFF7CFEAFFEF500009D8A475
:102274003EEF11F040EF11F014EF11F0120007C01F
:102284000BF008C00CF005C00DF006C00EF00B50AA
:10229400096E0C500A6E0B4A0C2A09C0F6FF0AC0DC
:1022A400F7FFF86A0DC0D9FF0EC0DAFF0D4A0E2AF7
:1022B400070EF76403D00800F55005D0F6CFE9FF08
:1022C400F7CFEAFFEF50DF6EDF50D8A46CEF11F0C8
:1022D4006EEF11F049EF11F01200000E026E000EC5
:1022E400016E80A078EF11F07AEF11F073EF11F026
:1022F400140EE82EFED780A082EF11F084EF11F0C7
:1023040088EF11F0D88002368BEF11F002500224CE
:10231400026E80B090EF11F092EF11F08BEF11F09C
:10232400012A070E016499EF11F09BEF11F073EF8E
:1023340011F0025012005C0E0001BC6F000EBD6F64
:1023440058C0BEF059C0BFF0000EC16F000EC06F80
:10235400000EC36F000EC26FBE0E506E000E516EA3
:102364005AC052F05BC053F0BC0E546E000E556E52
:10237400E1EC10F00001C0515824D96EC15159202C
:10238400DA6E000EDF6E1200046E180E0464CDEFD8
:1023940011F0CFEF11F0DFEF11F0150E0160D5EF62
:1023A40011F0D7EF11F0ECEF11F00150D8B4DDEFDC
:1023B40011F0DFEF11F0ECEF11F08A86060E036ED8
:1023C400130E026EAE0EE82EFED7022EFCD7032E9D
:1023D400FAD78A961200000E046E000E036E06EF02
:1023E40012F0000E066E000E056E054A062A06500F
:1023F40009E1A50E055CD8A002EF12F004EF12F07B
:10240400F7EF11F0034A042A0150035C0250045808
:10241400D8A00FEF12F011EF12F0F3EF11F0120049
:10242400000E106E000E0F6E23EF12F00EC001F0BE
:10243400026A0CC003F00DC004F088EC0FF00F4AE0
:10244400102A0F500A24D96E10500B20DA6EDF5078
:102454000E6E0E50D8A431EF12F033EF12F018EFD5
:1024640012F0120014BE41EF12F0145006E11304EE
:10247400D8B03FEF12F041EF12F04FEF12F013C05B
:1024840015F014C016F0151E161E154A162A15C08E
:1024940013F016C014F053EF12F013C013F014C06D
:1024A40014F01200000E946E000E956E000E026E73
:1024B400140E016EEDEC11F0380E00EC13F00C0E5E
:1024C40000EC13F0060E00EC13F0010E00EC13F018
:1024D400000E026E030E016EEDEC11F0800E00ECA6
:1024E40013F0120001C003F002C004F07CEF12F0FC
:1024F400014A022A01C0D9FF02C0DAFFDF50D8A482
:1025040086EF12F088EF12F07AEF12F00350015CBC
:10251400016E04500258026E12009AEF12F002C0CB
:10252400D9FF03C0DAFFDF500FEC13F0024A032A8D
:1025340002C0D9FF03C0DAFFDF50D8A4A4EF12F021
:10254400A6EF12F091EF12F0120080B0ACEF12F08F
:10255400AEEF12F0A7EF12F080A0B3EF12F0B5EFD8
:1025640012F0AEEF12F080B0BAEF12F0BCEF12F03E
:10257400B5EF12F012000FC001F010C002F074ECBD
:1025840012F001500F24056E02501020066E11C087
:1025940007F012C008F041EC11F0120001EE00F057
:1025A400320EEE6AE806FDE100EE60F05A0EEE6AC5
:1025B400E806FDE1000EF86E0001B8EF09F0929014
:1025C40089902F0E016EC00EE82EFED7012EFCD787
:1025D40089800D0EE82EFED700F092801200076E5F
:1025E40007C08CFF8B808B928B8400F08B94000E41
:1025F400026E030E016EEDEC11F01200076E07C0BF
:102604008CFF8B908B928B8400F08B94000E026E67
:10261400030E016EEDEC11F01200016E9EA815EF91
:1026240013F017EF13F010EF13F001C0ADFF120019
:102634009268C168920EC06E000EC46E000EC36E26
:04264400120012006E
:020000040020DA
:08000000FFFFFFFFFFFFFFFF00
:020000040030CA
:0E00000000051F1FFF8385FF0FC00FE00F409C
:00000001FF
